S02B000054696D657244656D6F355F3354696D6572735F466C61736853657061726174654C4544735F3235364D
S113000071C0000079C0000077C0000075C0000016
S113001073C0000071C000006FC000006DC000001C
S11300206BC0000069C0000067C0000065C000002C
S113003063C0000061C000005FC000005DC000003C
S11300405BC00000D2C0000057C0000055C00000D3
S113005053C0000051C000004FC0000095C0000014
S11300604BC0000049C0000047C0000045C000006C
S113007043C0000041C000003FC000003DC000007C
S1130080E5C0000039C0000037C0000035C00000E2
S113009033C0000031C000002FC000002DC000009C
S11300A02BC0000029C0000027C0000025C00000AC
S11300B023C0000021C000001FC000001DC00000BC
S11300C01BC0000019C0000017C0000015C00000CC
S11300D013C0000011C000000FC000000DC00000DC
S11300E00BC0000011241FBECFEFD1E2DEBFCDBF95
S11300F000E00CBF3AD0D1C083CF8FEF84B985EA3A
S113010085B97894089514BC85E085BD16BC81E05A
S113011080936E000895109280008DE0809381009A
S11301201092820087E08093890081EA809388009E
S1130130109285001092840082E080936F000895ED
S1130140109290008DE0809391001092920081E0D3
S11301508093990088EE80939800109295001092F5
S1130160940082E0809371000895C7DFCCDFD3DF71
S1130170E7DFFFCF83B180FF03C08E7F826002C0C0
S11301808D7F816085B908951F920F920FB60F92EB
S113019011240BB60F922F933F934F935F936F935A
S11301A07F938F939F93AF93BF93EF93FF93E2DF7C
S11301B0FF91EF91BF91AF919F918F917F916F913B
S11301C05F914F913F912F910F900BBE0F900FBEF7
S11301D00F901F90189583B183FF03C0877F8061C0
S11301E002C08F7E886085B908951F920F920FB662
S11301F00F9211240BB60F922F933F934F935F935B
S11302006F937F938F939F93AF93BF93EF93FF93DA
S1130210E2DFFF91EF91BF91AF919F918F917F9119
S11302206F915F914F913F912F910F900BBE0F9063
S11302300FBE0F901F90189583B186FF03C08F7B6C
S1130240806802C08F77806485B908951F920F92E9
S11302500FB60F9211240BB60F922F933F934F9327
S11302605F936F937F938F939F93AF93BF93EF931A
S1130270FF93E2DFFF91EF91BF91AF919F918F9137
S11302807F916F915F914F913F912F910F900BBE92
S11102900F900FBE0F901F901895F894FFCF9B
S9030000FC
