S02B000054696D657244656D6F345F4D6561737572696E6754696D654265747765656E4576656E74735F32357C
S113000071C00000B1C00000DBC000007DC0000072
S11300107BC0000079C0000077C0000075C00000FC
S113002073C0000071C000006FC000006DC000000C
S11300306BC0000069C0000067C0000065C000001C
S113004063C00000E7C000005FC000005DC00000A6
S11300505BC0000059C0000057C0000055C000003C
S113006053C0000051C000004FC000004DC000004C
S11300704BC0000049C0000047C0000045C000005C
S113008043C0000041C000003FC000003DC000006C
S11300903BC0000039C0000037C0000035C000007C
S11300A033C0000031C000002FC000002DC000008C
S11300B02BC0000029C0000027C0000025C000009C
S11300C023C0000021C000001FC000001DC00000AC
S11300D01BC0000019C0000017C0000015C00000BC
S11300E013C0000011241FBECFEFD1E2DEBFCDBF8D
S11300F000E00CBF22E0A0E0B2E001C01D92A130FC
S1130100B207E1F726D0B2C07BCF8FEF84B985B9AF
S11301101AB8789408958AE08093690010926A006E
S113012083E08DBB8CBB08951092800088E080939F
S113013081001092820083E08093890080ED809397
S11301408800109285001092840082E080936F00F2
S1130150089510920002DFDFE7DFD7DFFFCF809141
S11301600002809585B908951F920F920FB60F92E1
S113017011240BB60F922F933F934F935F936F937A
S11301807F938F939F93AF93BF93EF93FF931092BB
S11301900002E5DF8DE080938100FF91EF91BF9134
S11301A0AF919F918F917F916F915F914F913F910B
S11301B02F910F900BBE0F900FBE0F901F901895AC
S11301C01F920F920FB60F9211240BB60F922F931A
S11301D03F934F935F936F937F938F939F93AF93CB
S11301E0BF93EF93FF9388E080938100B8DFFF9182
S11301F0EF91BF91AF919F918F917F916F915F919B
S11302004F913F912F910F900BBE0F900FBE0F9007
S11302101F9018951F920F920FB60F9211240BB6D0
S11302200F922F933F934F935F936F937F938F938B
S11302309F93AF93BF93EF93FF93809100028F5FDF
S1130240809300028CDFFF91EF91BF91AF919F915A
S11302508F917F916F915F914F913F912F910F906B
S11302600BBE0F900FBE0F901F901895F894FFCF00
S9030000FC
