S0190000524649445F52433532325F323536305F432E737265638B
S113000071C000008EC000008CC000008AC00000D7
S113001088C0000086C0000084C0000082C00000C8
S113002080C000007EC000007CC000007AC00000D8
S113003078C0000076C0000074C0000072C00000E8
S113004070C000006EC000006CC000006AC00000F8
S113005068C0000066C0000064C0000062C0000008
S113006060C000005AC200005CC000005AC000001A
S113007058C0000056C0000054C0000052C0000028
S113008050C000004EC000004CC000004AC0000038
S113009048C0000046C0000044C0000042C0000048
S11300A040C000003EC000003CC000003AC0000058
S11300B038C0000036C0000034C0000032C0000068
S11300C030C000002EC000002CC000002AC0000078
S11300D028C0000026C0000024C0000022C0000088
S11300E020C0000011241FBECFEFD1E2DEBFCDBF80
S11300F000E00CBF12E0A0E0B2E0EEE4FCE000E0BF
S11301000BBF02C007900D92A836B107D9F722E0C1
S1130110A8E6B2E001C01D92A836B207E1F713D2F7
S113012094C56ECFCF93C62F2898880F8E77D8D1D9
S11301308C2FD6D1289ACF9108952898880F8E773E
S11301408068CED180E0CCD1289A08956FE081E018
S1130150E9CF0895FBDF6DE88AE2E4DF6EE38BE22A
S1130160E1DF6EE18CE2DEDF60E08DE2DBDF60E4A4
S113017085E1D8DF6DE381E1D5DF84E1DEDF982F0F
S1130180937021F4682F636084E1CCCF08953F928B
S11301904F925F926F927F928F929F92AF92BF9293
S11301A0CF92DF92EF92FF920F931F93CF93DF933F
S11301B0982EF62EE72E442E822E332E58018CE0F4
S11301C0981609F4BEC0EEE09E1609F4D9C084E086
S11301D0B4DF682F6F7784E0A5DF8AE0AEDF682F95
S11301E060688AE09FDF60E081E09CDF512C612C35
S11301F0712C4114510461047104D9F010E000E041
S113020005C010E307E702C010E102E1CF2DDE2DA7
S1130210C12CD12C7601699189E084DFFFEFCF1ADC
S1130220DF0AEF0AFF0AC414D504E604F70498F3BE
S113023002C010E000E0692D81E074DF8CE09812C8
S113024006C08DE07ADF682F60688DE06BDF84E0A4
S113025074DFF82EC0E0D0E0116009C084E06DDFE7
S1130260F82E2196CF3CE7E0DE0709F4A2C08F2DDB
S11302708123A1F3A6C00170F02211F0C2E001C0F5
S1130280C1E0FCE09F12A9C08AE057DF482E8CE051
S113029054DF282F2770A9F0842D90E00197880F50
S11302A0991F880F991F880F991F820F911D092E7E
S11302B0000CAA0BBB0BF50180839183A283B3834B
S11302C011C0842D90E0880F991F880F991F880F03
S11302D0991F092E000CAA0BBB0BF5018083918397
S11302E0A283B383442071F0842D813108F080E12E
S11302F0482E512C612C712C411451046104710459
S113030029F46BC0412C512C32014394082D132D38
S1130310C12CD12C760189E010DFF80181938F0183
S1130320FFEFCF1ADF0AEF0AFF0AC414D504E6046C
S1130330F70488F352C06CE081E0F4DE10E307E7D1
S113034080CF84E0FADE682F6F7784E0EBDE8AE00A
S1130350F4DE682F60688AE0E5DE60E081E0E2DEDA
S1130360512C612C712C411451046104710409F065
S113037048CFE1CF6EE081E0D5DE10E102E167CF46
S113038084E0DBDE682F6F7784E0CCDE8AE0D5DEA4
S1130390682F60688AE0C6DE60E081E0C3DE512C2D
S11303A0612C712C411451046104710409F02CCFA7
S11303B0E1CF8DE0C2DE682F6F778DE0B3DEC3E05E
S11303C00CC08DE0BADE682F6F778DE0ABDE86E07F
S11303D0B4DE8B7109F44FCFC3E08C2FDF91CF9142
S11303E01F910F91FF90EF90DF90CF90BF90AF904F
S11303F09F908F907F906F905F904F903F90089563
S1130400EF92FF920F931F93CF93DF9300D01F922D
S1130410CDB7DEB7182F7B0167E08DE083DEF701EF
S113042010838E010F5F1F4F970141E0B7018CE0ED
S1130430AEDE813059F449815A816B817C8140312F
S113044051056105710519F083E001C083E00F9047
S11304500F900F900F90DF91CF911F910F91FF900C
S1130460EF900895EF92FF920F931F93CF93DF9332
S113047000D01F92CDB7DEB77C0160E08DE052DE84
S113048083E9F701808380E281838E010F5F1F4F30
S1130490970142E0B7018CE07ADE813071F4F70114
S11304A0A7014C5F5F4F90E021919227E417F50775
S11304B0D9F7F7012481291383E00F900F900F904F
S11304C00F90DF91CF911F910F91FF90EF900895BE
S11304D084B1876084B923988CB581658CBD0895F7
S11304E08EBD0DB407FEFDCF8EB5089582E08093D6
S11304F0C00088E98093C10087E08093C200109215
S1130500C5008FEC8093C4000895E0ECF0E0908186
S113051095FFFDCF8093C60008951F920F920FB6EA
S11305200F9211240F900FBE0F901F901895CF9328
S1130530C82F8A3011F48DE0E8DF8C2FE6DF80E0ED
S113054090E0CF910895CF93DF93CDB7DEB7609756
S11305500FB6F894DEBF0FBECDBFC8DFB9DF20E011
S113056032E04FE050E061E070E08EE092E091D044
S1130570F1DD87E3E2DD823951F420E032E049E144
S113058050E061E070E08EE192E083D016C08059C3
S1130590823050F420E032E049E150E061E070E064
S11305A08EE192E076D009C020E032E041E150E0F3
S11305B061E070E088E392E06CD082E0BEDD682FF9
S11305C0606282E0AFDD83E0B8DD682F606883E0BD
S11305D0A9DD0F2EF0E0EF2EF2E0FF2EF02D812C9E
S11305E0912C0F2EFAE4AF2EF2E0BF2EF02DBE01B7
S11305F06F5F7F4F82E504DF813091F5CE01019674
S113060031DF813029F5CE0101966C01082D192DB9
S1130610F60181916F011F928F931F930F93BF92E5
S1130620AF92FF92EF9226D00F5F1F4F0FB6F89450
S1130630DEBF0FBECDBF0830110551F79FEFE1E1DA
S1130640FAE79150E040F040E1F700C0000008C034
S1130650970145E050E061E070E081E692E019D056
S11306602FEF83ED90E3215080409040E1F700C0EC
S11306700000BDCFCF93DF93CDB7DEB7AE01465FA9
S11306805F4F688579858E819F8145D0DF91CF91B9
S113069008958F929F92AF92BF92CF92DF92EF9282
S11306A0FF920F931F93CF93DF935B014A0179016C
S11306B0D90113962C9121FF1DC0C0E0D0E0C815CC
S11306C0D905D9F08C016C01CA0CDB1CC8010C15CE
S11306D01D0571F00F5F1F4FD7011896ED91FC9126
S11306E01997B701DC018C911995892B79F305C011
S11306F02196E5CF80E090E001C0CE01DF91CF915B
S11307001F910F91FF90EF90DF90CF90BF90AF902B
S11307109F908F9008952F923F924F925F926F9285
S11307207F928F929F92AF92BF92CF92DF92EF927D
S1130730FF920F931F93CF93DF93CDB7DEB72C9720
S11307400FB6F894DEBF0FBECDBF7C016B018A01EA
S1130750FC0117821682838181FFB0C1CE0101960C
S11307604C01F7019381F60193FD859193FF8191EB
S11307706F01882309F49EC1853239F493FD859174
S113078093FF81916F01853221F4B70190E0C7D1C5
S1130790E8CF512C312C20E02032A0F48B3269F0C8
S11307A030F4803259F0833269F420612CC08D32E8
S11307B039F0803339F4216026C02260246023C0DC
S11307C0286021C027FD27C030ED380F3A3078F477
S11307D026FF06C0FAE05F9E300D1124532E13C08D
S11307E08AE0389E300D1124332E20620CC08E32E4
S11307F021F426FD5FC1206406C08C3611F4206804
S113080002C0883641F4F60193FD859193FF8191EE
S11308106F018111C1CF982F9F7D9554933028F497
S11308200C5F1F4FFFE3F9830DC0833631F083372C
S113083071F0833509F057C021C0F80180818983A4
S11308400E5F1F4F44244394512C540114C03801AB
S1130850F2E06F0E711CF801A080B18026FF03C086
S1130860652D70E002C06FEF7FEFC5012C874CD17E
S11308702C0183012C852F77222E16C03801F2E03B
S11308806F0E711CF801A080B18026FF03C0652D96
S113089070E002C06FEF7FEFC5012C872AD12C01D5
S11308A02C852068222E830123FC19C0832D90E01F
S11308B048165906A0F4B70180E290E030D13A948A
S11308C0F5CFF50127FC859127FE81915F01B701E2
S11308D090E025D131103A94F1E04F1A51084114B7
S11308E0510479F7DEC0843611F0893631F5F80108
S11308F027FF07C060817181828193810C5F1F4F44
S113090008C060817181072E000C880B990B0E5F63
S11309101F4F2F76722E97FF09C090958095709582
S113092061957F4F8F4F9F4F2068722E2AE030E0F1
S1130930A4012DD1A82EA81843C0853729F42F7EF1
S1130940B22E2AE030E025C0F22FF97FBF2E8F3679
S1130950C1F018F4883579F0ADC0803719F08837C4
S113096021F0A8C02F2F2061B22EB4FE0DC08B2D14
S11309708460B82E09C024FF0AC09F2F9660B92E48
S113098006C028E030E005C020E130E002C020E1EC
S113099032E0F801B7FE07C06081718182819381E2
S11309A00C5F1F4F06C06081718180E090E00E5F94
S11309B01F4FA401ECD0A82EA818FB2DFF777F2E83
S11309C076FE0BC0372D3E7FA51450F474FE0AC08A
S11309D072FC08C0372D3E7E05C0BA2C372D03C0EB
S11309E0BA2C01C0B52C34FF0DC0FE01EA0DF11D77
S11309F08081803311F4397E09C032FF06C0B3947C
S1130A00B39404C0832F867809F0B39433FD12C0E5
S1130A1030FF06C05A2CB31418F4530C5B18B32CD3
S1130A20B31460F4B70180E290E03C8778D0B394CB
S1130A303C85F6CFB31410F43B1801C0312C34FFBD
S1130A4011C0B70180E390E03C8769D03C8532FF58
S1130A5016C031FD03C088E790E002C088E590E04D
S1130A60B7010CC0832F867851F031FF02C08BE2AE
S1130A7001C080E237FD8DE2B70190E050D0A514AB
S1130A8030F4B70180E390E04AD05A94F8CFAA94A6
S1130A90F401EA0DF11D8081B70190E040D0A1106E
S1130AA0F6CF332009F45DCEB70180E290E037D071
S1130AB03A94F7CFF7018681978102C08FEF9FEFB9
S1130AC02C960FB6F894DEBF0FBECDBFDF91CF9149
S1130AD01F910F91FF90EF90DF90CF90BF90AF9058
S1130AE09F908F907F906F905F904F903F902F904A
S1130AF00895FC010590615070400110D8F780956D
S1130B0090958E0F9F1F0895FC01615070400190D5
S1130B100110D8F7809590958E0F9F1F08950F931D
S1130B201F93CF93DF93FB01238121FD03C08FEF3C
S1130B309FEF28C022FF16C046815781248135814A
S1130B404217530744F4A081B1819D012F5F3F4FA9
S1130B50318320838C93268137812F5F3F4F3783E6
S1130B60268310C0EB01092F182F0084F185E02D96
S1130B701995892BE1F68E819F8101969F838E833F
S1130B80812F902FDF91CF911F910F910895FA013A
S1130B90AA27283051F1203181F1E8946F936E7FB8
S1130BA06E5F7F4F8F4F9F4FAF4FB1E03ED0B4E0A9
S1130BB03CD0670F781F891F9A1FA11D680F791FEA
S1130BC08A1F911DA11D6A0F711D811D911DA11DFB
S1130BD020D009F468943F912AE0269F112430190B
S1130BE0305D3193DEF6CF010895462F4770405DA6
S1130BF04193B3E00FD0C9F7F6CF462F4F70405D55
S1130C004A3318F0495D31FD4052419302D0A9F7AF
S1130C10EACFB4E0A6959795879577956795BA95A9
S1130C20C9F700976105710508959B01AC010A2E6F
S1130C3006945795479537952795BA95C9F7620F46
S1110C40731F841F951FA01D0895F894FFCF05
S1130C4E0000000200000000970200000000707215
S1130C5E6F6772616D207374617274210A004D495D
S1130C6E4641524520524335323276322044657421
S1130C7E6563746564210A004E6F20726561646554
S1130C8E7220666F756E64210A0073657269616CF9
S1130C9E206E756D6265725B25645D3A2025780A57
S10B0CAE006572726F72000010
S9030000FC
