S01D000050574D5F4C45445F44696D6D65725F323536305F432E7372656354
S11300007BC0000098C0000096C0000094C00000AF
S113001092C0000090C000008EC000008CC00000A0
S11300208AC0000088C0000086C0000084C00000B0
S113003082C0000080C000007EC000007CC00000C0
S11300407AC0000092C0000076C0000074C00000B6
S113005072C0000070C000006EC000006CC00000E0
S11300606AC00000DAC0000066C0000064C000007E
S113007062C0000060C000005EC000005CC0000000
S11300805AC0000058C0000056C0000054C0000010
S113009052C0000050C000004EC000004CC0000020
S11300A04AC0000048C0000046C0000044C0000030
S11300B042C0000040C000003EC00000EDC000008F
S11300C03AC0000038C00000D9C0000034C00000AD
S11300D032C0000030C000002EC000002CC0000060
S11300E02AC00000BE01C201C601CA01CE01D2016C
S11300F0D601DA01DE01E20111241FBECFEFD1E205
S1130100DEBFCDBF00E00CBF12E0A0E0B2E0E4E44B
S1130110F9E000E00BBF02C007900D92A235B107D1
S1130120D9F722E0A2E5B2E001C01D92A535B207DD
S1130130E1F74CD105C464CF109280008AE080932B
S11301408100109282008EE4809389008FE1809375
S11301508800109285001092840082E080936F00E2
S113016008951AB87894E8CF08951F920F920FB6A5
S11301700F9211248F939F9389B1837090915202AF
S113018089130AC093E0892790915302909598238C
S1130190909354028093530289B1837080935202E6
S11301A09F918F910F900FBE0F901F90189582E032
S11301B08093C00088E98093C10087E08093C200E7
S11301C01092C5008FEC8093C4000895E0ECF0E039
S11301D0908195FFFDCF8093C60008950F931F93E0
S11301E0CF93DF93FC0101900020E9F73197E81BDE
S11301F0F90B71F04AF0EC018C010E0F1F1F89916D
S1130200E5DFC017D107D9F78DE0E0DF8AE0DEDF54
S1130210DF91CF911F910F9108951F920F920FB606
S11302200F9211240F900FBE0F901F901895CF932B
S1130230C82F8A3011F48DE0C9DF8C2FC7DF80E02E
S113024090E0CF9108958FEF84B915B8089581E0B7
S1130250809320018AE08093210110922201109260
S11302602501109224011092290186E2809328012D
S113027083E0809373008FE28ABB08951F920F92EC
S11302800FB60F9211248F938FEF85B98F910F9032
S11302900FBE0F901F9018951F920F920FB60F92DA
S11302A0112415B80F900FBE0F901F9018958091D0
S11302B05402882309F489C01F928F938FE092E03F
S11302C09F938F9381E092E09F938F9390D00F90B0
S11302D00F900F900F900F900F90809154028130E7
S11302E019F08230F9F03CC080910002823018F499
S11302F08BE0809300028091000281508093000281
S11303001F928F9388E192E09F938F9381E092E014
S11303109F938F936CD00F900F900F900F900F902E
S11303200F901EC0809100028F5F8B3018F4809371
S1130330000203C081E080930002809100021F92BA
S11303408F938CE292E09F938F9381E092E09F934E
S11303508F934DD00F900F900F900F900F900F90A0
S1130360E09100028E2F90E0FC013197EA30F10514
S113037060F58827EE58FF4F8F4F31C08AE1809394
S11303802801089583E38093280108958DE48093E0
S11303902801089586E680932801089580E88093D3
S11303A02801089589E980932801089583EB8093B7
S11303B0280108958CEC80932801089586EE80939B
S11303C0280108958FEF80932801089540DF3BDFD3
S11303D0EEDEC7DE80E492E001DF69DFFECFEE0FE0
S11303E0FF1F881F8BBF0790F691E02D1994CF93C0
S11303F0DF93CDB7DEB7AE01465F5F4F6885798581
S11304008E819F8103D0DF91CF9108952F923F92E7
S11304104F925F926F927F928F929F92AF92BF9210
S1130420CF92DF92EF92FF920F931F93CF93DF93BC
S1130430CDB7DEB72C970FB6F894DEBF0FBECDBF95
S11304407C016B018A01FC0117821682838181FF82
S1130450B0C1CE0101964C01F7019381F60193FDE1
S1130460859193FF81916F01882309F49EC18532A0
S113047039F493FD859193FF81916F01853221F4C5
S1130480B70190E0C7D1E8CF512C312C20E02032C5
S1130490A0F48B3269F030F4803259F0833269F47D
S11304A020612CC08D3239F0803339F4216026C0AC
S11304B02260246023C0286021C027FD27C030EDBE
S11304C0380F3A3078F426FF06C0FAE05F9E300D0C
S11304D01124532E13C08AE0389E300D1124332E7C
S11304E020620CC08E3221F426FD5FC1206406C058
S11304F08C3611F4206802C0883641F4F60193FD6D
S1130500859193FF81916F018111C1CF982F9F7DB8
S11305109554933028F40C5F1F4FFFE3F9830DC00B
S1130520833631F0833771F0833509F057C021C029
S1130530F801808189830E5F1F4F44244394512C1A
S1130540540114C03801F2E06F0E711CF801A08050
S1130550B18026FF03C0652D70E002C06FEF7FEF0E
S1130560C5012C874CD12C0183012C852F77222E99
S113057016C03801F2E06F0E711CF801A080B18042
S113058026FF03C0652D70E002C06FEF7FEFC50149
S11305902C872AD12C012C852068222E830123FC50
S11305A019C0832D90E048165906A0F4B70180E2E3
S11305B090E030D13A94F5CFF50127FC859127FEE0
S11305C081915F01B70190E025D131103A94F1E0B7
S11305D04F1A51084114510479F7DEC0843611F0E2
S11305E0893631F5F80127FF07C060817181828166
S11305F093810C5F1F4F08C060817181072E000C2E
S1130600880B990B0E5F1F4F2F76722E97FF09C030
S113061090958095709561957F4F8F4F9F4F20687F
S1130620722E2AE030E0A4012DD1A82EA81843C0D0
S1130630853729F42F7EB22E2AE030E025C0F22F30
S1130640F97FBF2E8F36C1F018F4883579F0ADC02C
S1130650803719F0883721F0A8C02F2F2061B22EDF
S1130660B4FE0DC08B2D8460B82E09C024FF0AC0CF
S11306709F2F9660B92E06C028E030E005C020E127
S113068030E002C020E132E0F801B7FE07C060812B
S11306907181828193810C5F1F4F06C060817181DB
S11306A080E090E00E5F1F4FA401ECD0A82EA818A4
S11306B0FB2DFF777F2E76FE0BC0372D3E7FA514D2
S11306C050F474FE0AC072FC08C0372D3E7E05C08B
S11306D0BA2C372D03C0BA2C01C0B52C34FF0DC081
S11306E0FE01EA0DF11D8081803311F4397E09C0C9
S11306F032FF06C0B394B39404C0832F867809F004
S1130700B39433FD12C030FF06C05A2CB31418F44E
S1130710530C5B18B32CB31460F4B70180E290E07F
S11307203C8778D0B3943C85F6CFB31410F43B18CF
S113073001C0312C34FF11C0B70180E390E03C8745
S113074069D03C8532FF16C031FD03C088E790E0D4
S113075002C088E590E0B7010CC0832F867851F081
S113076031FF02C08BE201C080E237FD8DE2B701A8
S113077090E050D0A51430F4B70180E390E04AD063
S11307805A94F8CFAA94F401EA0DF11D8081B701BF
S113079090E040D0A110F6CF332009F45DCEB7012C
S11307A080E290E037D03A94F7CFF70186819781C1
S11307B002C08FEF9FEF2C960FB6F894DEBF0FBEEA
S11307C0CDBFDF91CF911F910F91FF90EF90DF90FC
S11307D0CF90BF90AF909F908F907F906F905F90DD
S11307E04F903F902F900895FC0105906150704008
S11307F00110D8F7809590958E0F9F1F0895FC01E6
S11308006150704001900110D8F7809590958E0F3B
S11308109F1F08950F931F93CF93DF93FB012381B1
S113082021FD03C08FEF9FEF28C022FF16C0468131
S11308305781248135814217530744F4A081B18143
S11308409D012F5F3F4F318320838C932681378115
S11308502F5F3F4F3783268310C0EB01092F182FDA
S11308600084F185E02D1995892BE1F68E819F8115
S113087001969F838E83812F902FDF91CF911F91BB
S11308800F910895FA01AA27283051F1203181F1FE
S1130890E8946F936E7F6E5F7F4F8F4F9F4FAF4F84
S11308A0B1E03ED0B4E03CD0670F781F891F9A1F97
S11308B0A11D680F791F8A1F911DA11D6A0F711D4B
S11308C0811D911DA11D20D009F468943F912AE057
S11308D0269F11243019305D3193DEF6CF0108953F
S11308E0462F4770405D4193B3E00FD0C9F7F6CF70
S11308F0462F4F70405D4A3318F0495D31FD405238
S1130900419302D0A9F7EACFB4E0A69597958795CD
S113091077956795BA95C9F70097610571050895AC
S11309209B01AC010A2E0694579547953795279558
S1130930BA95C9F7620F731F841F951FA01D0895F0
S1070940F894FFCF55
S11309440100000002000000001701000000005430
S113095472673A2025780A0053776974636865736B
S113096456616C75652D3A2025640A0053776974C1
S11309746368657356616C75652B3A2025640A00B7
S113098470726F6772616D207374617274212121B6
S10509940A0053
S9030000FC
