S02200004C4344313630325F4932435F504346383537345F323536305F432E737265636B
S113000071C000008EC000008CC000008AC00000D7
S113001088C0000086C0000084C0000082C00000C8
S113002080C000007EC000007CC000007AC00000D8
S113003078C0000076C0000074C0000072C00000E8
S113004070C000006EC000006CC000006AC00000F8
S113005068C0000066C0000064C0000062C0000008
S113006060C00000D1C200005CC000005AC00000A3
S113007058C0000056C0000054C0000052C0000028
S113008050C000004EC000004CC000004AC0000038
S113009048C0000046C0000044C0000042C0000048
S11300A040C000003EC000003CC000003AC0000058
S11300B038C0000036C0000034C0000032C0000068
S11300C030C000002EC000002CC000002AC0000078
S11300D028C0000026C0000024C0000022C0000088
S11300E020C0000011241FBECFEFD1E2DEBFCDBF80
S11300F000E00CBF12E0A0E0B2E0ECE5F6E000E0C6
S11301000BBF02C007900D92A834B107D9F722E0C3
S1130110A8E4B2E001C01D92A135B207E1F77ED296
S11301209BC26ECFCF93882331F0809148028160C7
S11301308093480205C0809148028E7F80934802D4
S1130140809148028260809348026091480287E06F
S11301508DD162E087E0D4D100C064E087E06FD144
S1130160C82F62E087E0CFD100C062E087E0C8D149
S113017000C064E087E063D1C295C07F8F70C82B54
S113018062E087E0C0D18C2FCF91089580E0CADF70
S11301908823E4F388E090E00197F1F780E0C2CF90
S11301A0089562E087E0ACD100C062E087E0ABC1B3
S11301B00895CF93C82F662331F08091480281605F
S11301C08093480205C0809148028E7F8093480244
S11301D0809148028D7F809348026091480287E0B5
S11301E045D1809148028F778093480280914802DC
S11301F08F7B80934802809148028F7D80934802D0
S1130200809148028F7E80934802CC232CF4809105
S11302104802806880934802C6FF05C08091480266
S1130220806480934802C5FF05C0809148028062C3
S113023080934802C4FF05C0809148028061809386
S113024048026091480287E011D1ABDF80914802F7
S11302508F7780934802809148028F7B8093480275
S1130260809148028F7D80934802809148028F7E5E
S113027080934802C3FF05C0809148028068809340
S11302804802C2FF05C080914802806480934802FE
S1130290C1FF05C080914802806280934802C0FF7C
S11302A005C08091480280618093480260914802B1
S11302B087E0DCD076DF8091480280618093480239
S11302C08091480280628093480280914802806451
S11302D0809348028091480280688093480260912C
S11302E0480287E0C3D0CF910895CF93C82F4EDF43
S11302F060E08C2F5EDFCF910895611103C08058B8
S1130300F4CF08958054F1CF089581E0EECF08959D
S1130310882331F080914802877F8093480205C08A
S1130320809148028860809348026091480287E087
S11303309DC0089582E0D9CF0895CF93C82F26DFBA
S1130340CA3041F4803410F080E001C080E4805869
S1130350CCDF0FC0803121F460E080EC2ADF05C0DF
S1130360803519F460E080E824DF10DF61E08C2F31
S113037020DFCF910895CF93DF93EC012196FC0108
S11303808081882321F0D9DF89918111FCCFDF910D
S1130390CF9108951F93CF93DF93182F40D01092DD
S11303A048026091480287E061D080E09AEF0197AB
S11303B0F1F790914802906290934802909148021C
S11303C09061909348026091480287E04FD0E9DE43
S11303D0E0E0FEE43197F1F7E4DEC0E0D1E0FE01B5
S11303E03197F1F7DEDEFE013197F1F79091480283
S11303F09F7E909348026091480287E037D0D1DE17
S11304002197F1F788E271DF88E06FDF7EDF86E015
S11304106CDF812F6ADFDF91CF911F91089576D031
S113042085E38A95F1F7000080E090E0FC01E75B4A
S1130430FD4F1082019688309105C1F708958830E8
S113044088F4683088F4E82FF0E0E75BFD4F8081A2
S1130450082E000C990B02C0959587956A95E2F7D2
S1130460817008958FEF08958FEF0895CF938830AA
S113047080F4C62F982FE82FF0E0E75BFD4F6083F0
S113048080E2890F880F48D08C2F76D06CD080E022
S113049001C08FEFCF910895CF93DF93883050F54B
S11304A0683050F5282F30E0F901E75BFD4F90816B
S11304B0442349F0C1E0D0E002C0CC0FDD1F6A95AF
S11304C0E2F7C92B09C0C1E0D0E002C0CC0FDD1FA8
S11304D06A95E2F7C095C923982FF901E75BFD4FB0
S11304E0C08380E2890F880F17D08C2F45D03BD072
S11304F080E003C08FEF01C08FEFDF91CF910895AB
S113050041E0CACF089540E0C7CF08951092B900E2
S113051082E18093B800089594EA9093BC00ECEBD8
S1130520F0E090819923ECF79091B900987F98308E
S113053011F09031A1F48093BB0084E88093BC0057
S1130540ECEBF0E080818823ECF79091B900987F80
S1130550983139F081E0903429F480E0089581E005
S1130560089580E0089584E98093BC00ECEBF0E00A
S1130570808184FDFDCF08958093BB0084E880933F
S1130580BC00ECEBF0E080818823ECF79091B9009B
S1130590987F81E0983209F480E0089582E08093A6
S11305A0C00088E98093C10087E08093C200109264
S11305B0C5008FEC8093C4000895E0ECF0E09081D6
S11305C095FFFDCF8093C60008950F931F93CF939B
S11305D0DF93FC0101900020E9F73197E81BF90B48
S11305E071F04AF0EC018C010E0F1F1F8991E5DFB9
S11305F0C017D107D9F78DE0E0DF8AE0DEDFDF91B5
S1130600CF911F910F9108951F920F920FB60F92E1
S113061011240F900FBE0F901F901895BFDF80E03C
S113062092E0D3DF8CE0B6DE82E192E0CEDF82DEC0
S113063080E06EDE60E080E060DE88E292E09BDED7
S113064060E085E05ADE8FED78DE61E080E055DE23
S10F065087E392E090DEFFCFF894FFCF28
S113065C70726F6772616D207374617274212121E1
S113066C0A004C43445F444953505F4F4E5F424C25
S113067C494E4B2121210A00543A2D31322043207A
S113068C20483A383925004C3A31302020443A4C31
S10B069C4F4320413A4F4E0088
S9030000FC
