S02B000054696D657244656D6F315F53696E676C6554696D657253696E676C654C4544466C6173685F3235363A
S113000071C0000081C000007FC000007DC00000FE
S11300107BC0000079C0000077C0000075C00000FC
S113002073C0000071C000006FC000006DC000000C
S11300306BC0000069C0000067C0000065C000001C
S113004063C0000082C000005FC000005DC000000B
S11300505BC0000059C0000057C0000055C000003C
S113006053C0000051C000004FC000004DC000004C
S11300704BC0000049C0000047C0000045C000005C
S113008043C0000041C000003FC000003DC000006C
S11300903BC0000039C0000037C0000035C000007C
S11300A033C0000031C000002FC000002DC000008C
S11300B02BC0000029C0000027C0000025C000009C
S11300C023C0000021C000001FC000001DC00000AC
S11300D01BC0000019C0000017C0000015C00000BC
S11300E013C0000011241FBECFEFD1E2DEBFCDBF8D
S11300F000E00CBF22E0A0E0B2E001C01D92A130FC
S1130100B207E1F71DD03BC07BCF8FEF84B985B92F
S11301101AB878940895109280008DE0809381003D
S11301201092820081E08093890088EE8093880099
S1130130109285001092840082E080936F000895ED
S1130140E4DF10920002E7DFFFCF1F920F920FB699
S11301500F9211248F9380910002811104C083E0D7
S11301608093000202C010920002809100028095E8
S113017085B98F910F900FBE0F901F901895F8942A
S1050180FFCFAB
S9030000FC
