S026000050574D5F4C45445F44696D6D65725F4E6F5F54696D65725F323536305F432E73726563CF
S113000071C0000081C000007FC000007DC00000FE
S11300107BC0000079C0000077C0000075C00000FC
S113002073C0000071C000006FC000006DC000000C
S11300306BC0000069C0000067C0000065C000001C
S113004063C000007BC000005FC000005DC0000012
S11300505BC0000059C0000057C0000055C000003C
S113006053C0000051C000004FC000004DC000004C
S11300704BC0000049C0000047C0000045C000005C
S113008043C0000041C000003FC000003DC000006C
S11300903BC0000039C0000037C0000035C000007C
S11300A033C0000031C000002FC000002DC000008C
S11300B02BC0000029C0000027C0000025C000009C
S11300C023C0000021C000001FC000001DC00000AC
S11300D01BC0000019C0000017C0000015C00000BC
S11300E013C0000011241FBECFEFD1E2DEBFCDBF8D
S11300F000E00CBF22E0A0E0B2E001C01D92A430F9
S1130100B207E1F77ED081C07BCF109280008AE0F5
S1130110809381001092820084E08093890082EEB3
S113012080938800109285001092840082E080936E
S11301306F0008951AB87894E8CF08951F920F922B
S11301400FB60F9211248F939F9389B1909100025F
S1130150982349F08095909102029095982390936A
S113016003028093020289B1809300029F918F91D0
S11301700F900FBE0F901F9018958FEF84B915B88C
S11301800895009741F0E9EFF0E03197F1F700C0EE
S113019000000197C1F70895CF93DF939FEF95B9BE
S11301A0C82FD0E0CE01EDDF81E885B98AE090E088
S11301B08C1B9D0BE6DFDF91CF91089580910302A4
S11301C08823D9F080FF0DC080910102811103C002
S11301D08BE080930102809101028150809301029F
S11301E00CC081FF0AC0809101028F5F8A3018F42D
S11301F08093010202C01092010280910102CCCFCF
S11102000895BBDF97DFDADFFECFF894FFCF5F
S9030000FC
