S01C0000427574746F6E5F457874496E745F323536305F432E7372656303
S113000071C0000081C000007FC00000B1C00000CA
S11300107BC0000079C0000077C0000075C00000FC
S113002073C0000071C000006FC000006DC000000C
S11300306BC0000069C0000067C0000065C000001C
S113004063C0000061C000005FC000005DC000002C
S11300505BC0000059C0000057C0000055C000003C
S113006053C0000051C000004FC000004DC000004C
S11300704BC0000049C0000047C0000045C000005C
S113008043C0000041C000003FC000003DC000006C
S11300903BC0000039C0000037C0000035C000007C
S11300A033C0000031C000002FC000002DC000008C
S11300B02BC0000029C0000027C0000025C000009C
S11300C023C0000021C000001FC000001DC00000AC
S11300D01BC0000019C0000017C0000015C00000BC
S11300E013C0000011241FBECFEFD1E2DEBFCDBF8D
S11300F000E00CBF22E0A0E0B2E001C01D92A130FC
S1130100B207E1F702D045C07BCFE7E0F1E08081A0
S113011080688083E8E0F1E080818F778083529863
S11301205A9AE9E6F0E0808180618083EA9AE29A53
S11301307894E8E0F1E0809100028111FCCF8081A5
S1130140806880832FEF89E698E1215080409040B9
S1130150E1F700C0000080818F7780832FE78FE371
S11301609DE1215080409040E1F700C00000E3CFC2
S11301701F920F920FB60F9211248F938091000259
S11301808095809300028F910F900FBE0F901F9067
S10901901895F894FFCF5E
S9030000FC
