S0220000736D6172744D757365756D53686F77636173655F323536305F432E7372656354
S11300007CC000009BC0000099C000006BC70000CA
S113001097C2000093C0000091C000008FC0000090
S11300208DC000008BC0000089C0000087C00000A4
S113003085C0000083C0000081C000007FC00000B4
S11300407DC00000D8C0000079C0000077C0000067
S113005075C0000073C0000071C000006FC00000D4
S11300606DC000000C94430969C0000067C0000023
S113007065C0000063C0000061C000005FC00000F4
S11300805DC000005BC0000059C0000057C0000004
S113009055C0000053C0000051C000004FC0000014
S11300A04DC000004BC0000049C0000047C0000024
S11300B045C0000043C0000041C000000C94610929
S11300C03DC000003BC0000039C0000037C0000044
S11300D035C0000033C0000031C000002FC0000054
S11300E02DC00000410B440B480B4C0B500B540B20
S11300F0580B5C0B600B640B680B11241FBECFEF15
S1130100D1E2DEBFCDBF00E00CBF12E0A0E0B2E060
S1130110E6EBF7E100E00BBF02C007900D92AE35AD
S1130120B107D9F722E0AEE5B2E001C01D92A739CC
S1130130B207E1F70E94850B0C94D90B61CF1092A2
S11301406C02109267021092770210927802109259
S1130150790210927A020895E1E8F0E080818860E3
S11301608083808181608083EFE6F0E0808182601B
S113017080838FE990E090938900809388001092A7
S11301808500109284005398E9E6F0E0808180684D
S11301908083EB9A7894D3DF10926D0210926E02F2
S11301A010926F02109270020895982381E009F072
S11301B080E0089580916D0290916E02A0916F028B
S11301C0B0917002883F9A42A105B10598F0B7DF5B
S11301D010926D0210926E0210926F0210927002D1
S11301E0E9E6F0E080818068808380818F7B808372
S11301F01092760208951F920F920FB60F92112457
S11302008F939F93AF93BF938091770290917802DD
S1130210A0917902B0917A020196A11DB11D80933B
S1130220770290937802A0937902B0937A02809136
S11302306D0290916E02A0916F02B09170020196CE
S1130240A11DB11D80936D0290936E02A0936F0265
S1130250B0937002BF91AF919F918F910F900FBE99
S11302600F901F90189510927702109278021092B6
S1130270790210927A0281E080936C020895809151
S1130280770290917802A0917902B0917A02893A2A
S11302909140A105B105D8F0809177029091780240
S11302A0A0917902B0917A028C3D9140A105B105EB
S11302B070F482E080936C021092750210926802CE
S11302C01092690210926A0210926B020895809152
S11302D0770290917802A0917902B0917A02883CD9
S11302E09105A105B10520F18091770290917802E2
S11302F0A0917902B0917A028B3F9105A105B105D5
S1130300B8F483E080936C0281E08093670280916B
S1130310710290917202A0917302B0917402809361
S1130320680290936902A0936A02B0936B020895E5
S113033006CF0895109277021092780210927902F3
S113034010927A0281E080936C0208958091770282
S113035090917802A0917902B0917A024F97A10509
S1130360B10508F450C08091770290917802A09171
S11303707902B0917A0282359105A105B10508F0A0
S113038042C08091680290916902A0916A02B09182
S11303906B02880F991FAA1FBB1F8093680290935A
S11303A06902A0936A02B0936B02809175028F5F19
S11303B08093750280917502803220F482E08093EC
S11303C06C020895609168027091690280916A02DA
S11303D090916B02EADE811102C0B1CE089583E0F0
S11303E080936C028091680290916902A0916A02E4
S11303F0B0916B028093710290937202A093730286
S1130400B093740208958091770290917802A0913C
S11304107902B0917A0280399105A105B10508F4F9
S113042054C08091770290917802A0917902B091A2
S11304307A02833C9105A105B10508F046C080917C
S1130440680290916902A0916A02B0916B02880FD0
S1130450991FAA1FBB1F8160809368029093690251
S1130460A0936A02B0936B02809175028F5F8093B0
S1130470750280917502803220F482E080936C02D0
S11304800895609168027091690280916A02909166
S11304906B028BDE811102C052CE089583E08093FB
S11304A06C028091680290916902A0916A02B091F5
S11304B06B028093710290937202A0937302B093C3
S11304C0740281E08093660208951092750210927E
S11304D068021092690210926A0210926B022FCE87
S11304E00895109277021092780210927902109275
S11304F07A0282E080936C0208951092770210923F
S113050078021092790210927A0210926C02809111
S1130510680290916902A0916A02B0916B02809383
S1130520710290937202A0937302B09374021092BA
S11305306D0210926E0210926F0210927002089572
S11305401F920F920FB60F9211240BB60F922F9396
S11305503F934F935F936F937F938F939F93AF9347
S1130560BF93EF93FF9326DE80916C02813071F08C
S113057028F08230B9F0833009F122C080917602EC
S1130580811102C070DE1DC0DADD1BC080917602CD
S1130590813011F4CFDE15C080917602811111C033
S11305A06EDE0FC080917602813011F49ADF09C0AB
S11305B080917602811105C0C9DE03C09EDF01C0AF
S11305C0BEDD8091760281110CC0E9E6F0E0808105
S11305D08068808380818064808381E08093760258
S11305E00EC080917602813051F4E9E6F0E080811A
S11305F08068808380818F7B808310927602FF9154
S1130600EF91BF91AF919F918F917F916F915F9186
S11306104F913F912F910F900BBE0F900FBE0F90F3
S11306201F9018951092B90082E18093B800089544
S113063094EA9093BC00ECEBF0E090819923ECF702
S11306409091B900987F983011F09031A1F4809383
S1130650BB0084E88093BC00ECEBF0E0808188234D
S1130660ECF79091B900987F983139F081E090349B
S113067029F480E0089581E0089580E0089584E9F4
S11306808093BC00ECEBF0E0808184FDFDCF089505
S11306908093BB0084E88093BC00ECEBF0E08081A5
S11306A08823ECF79091B900987F81E0983209F49F
S11306B080E00895CF93882331F080915E028160B9
S11306C080935E0205C080915E028E7F80935E02FD
S11306D080915E02826080935E0260915E0287E098
S11306E08DD162E087E0D4D100C064E087E06FD1AF
S11306F0C82F62E087E0CFD100C062E087E0C8D1B4
S113070000C064E087E063D1C295C07F8F70C82BBE
S113071062E087E0C0D18C2FCF91089580E0CADFDA
S11307208823E4F388E090E00197F1F780E0C2CFFA
S1130730089562E087E0ACD100C062E087E0ABC11D
S11307400895CF93C82F662331F080915E028160B3
S113075080935E0205C080915E028E7F80935E026C
S113076080915E028D7F80935E0260915E0287E0DD
S113077045D180915E028F7780935E0280915E0204
S11307808F7B80935E0280915E028F7D80935E02F8
S113079080915E028F7E80935E02CC232CF4809144
S11307A05E02806880935E02C6FF05C080915E028F
S11307B0806480935E02C5FF05C080915E02806202
S11307C080935E02C4FF05C080915E0280618093C5
S11307D05E0260915E0287E011D1ABDF80915E0220
S11307E08F7780935E0280915E028F7B80935E029E
S11307F080915E028F7D80935E0280915E028F7E87
S113080080935E02C3FF05C080915E02806880937E
S11308105E02C2FF05C080915E02806480935E0226
S1130820C1FF05C080915E02806280935E02C0FFBA
S113083005C080915E02806180935E0260915E02D9
S113084087E0DCD076DF80915E02806180935E0277
S113085080915E02806280935E0280915E02806479
S113086080935E0280915E02806880935E02609154
S11308705E0287E0C3D0CF910895CF93C82F4EDF97
S113088060E08C2F5EDFCF910895611103C0805822
S1130890F4CF08958054F1CF089581E0EECF089508
S11308A0882331F080915E02877F80935E0205C0C9
S11308B080915E02886080935E0260915E0287E0B0
S11308C09DC0089582E0D9CF0895CF93C82F26DF25
S11308D0CA3041F4803410F080E001C080E48058D4
S11308E0CCDF0FC0803121F460E080EC2ADF05C04A
S11308F0803519F460E080E824DF10DF61E08C2F9C
S113090020DFCF910895CF93DF93EC012196FC0172
S11309108081882321F0D9DF89918111FCCFDF9177
S1130920CF9108951F93CF93DF93182F40D0109247
S11309305E0260915E0287E061D080E09AEF0197E9
S1130940F1F790915E02906290935E0290915E0244
S1130950906190935E0260915E0287E04FD0E9DE81
S1130960E0E0FEE43197F1F7E4DEC0E0D1E0FE011F
S11309703197F1F7DEDEFE013197F1F790915E02D7
S11309809F7E90935E0260915E0287E037D0D1DE55
S11309902197F1F788E271DF88E06FDF7EDF86E080
S11309A06CDF812F6ADFDF91CF911F9108953ADECA
S11309B085E38A95F1F7000080E090E0FC01E558BA
S11309C0FD4F1082019688309105C1F70895883053
S11309D088F4683088F4E82FF0E0E558FD4F808112
S11309E0082E000C990B02C0959587956A95E2F73D
S11309F0817008958FEF08958FEF0895CF93883015
S1130A0080F4C62F982FE82FF0E0E558FD4F60835F
S1130A1080E2890F880F0CDE8C2F3ADE30DE80E016
S1130A2001C08FEFCF910895CF93DF93883050F5B5
S1130A30683050F5282F30E0F901E558FD4F9081DA
S1130A40442349F0C1E0D0E002C0CC0FDD1F6A9519
S1130A50E2F7C92B09C0C1E0D0E002C0CC0FDD1F12
S1130A606A95E2F7C095C923982FF901E558FD4F1F
S1130A70C08380E2890F880FDBDD8C2F09DEFFDD68
S1130A8080E003C08FEF01C08FEFDF91CF91089515
S1130A9041E0CACF089540E0C7CF0895E1E0F1E016
S1130AA080818860808381E88093A0008AE08093BD
S1130AB0A1001092A2001092A5001092A40010921E
S1130AC0A9001092A8000895CF93C62F2898880FE4
S1130AD08E77D8D18C2FD6D1289ACF910895289883
S1130AE0880F8E778068CED180E0CCD1289A089583
S1130AF06FE081E0E9CF0895FBDF6DE88AE2E4DF8F
S1130B006EE38BE2E1DF6EE18CE2DEDF60E08DE23A
S1130B10DBDF60E485E1D8DF6DE381E1D5DF84E1EB
S1130B20DEDF982F937021F4682F636084E1CCCFCB
S1130B3008953F924F925F926F927F928F929F920D
S1130B40AF92BF92CF92DF92EF92FF920F931F93D7
S1130B50CF93DF93982EF62EE72E442E822E332E3B
S1130B6058018CE0981609F4BEC0EEE09E1609F414
S1130B70D9C084E0B4DF682F6F7784E0A5DF8AE012
S1130B80AEDF682F60688AE09FDF60E081E09CDF71
S1130B90512C612C712C4114510461047104D9F05D
S1130BA010E000E005C010E307E702C010E102E135
S1130BB0CF2DDE2DC12CD12C7601699189E084DF03
S1130BC0FFEFCF1ADF0AEF0AFF0AC414D504E604C4
S1130BD0F70498F302C010E000E0692D81E074DFAF
S1130BE08CE0981206C08DE07ADF682F60688DE093
S1130BF06BDF84E074DFF82EC0E0D0E0116009C040
S1130C0084E06DDFF82E2196CF3CE7E0DE0709F49F
S1130C10A2C08F2D8123A1F3A6C00170F02211F090
S1130C20C2E001C0C1E0FCE09F12A9C08AE057DF26
S1130C30482E8CE054DF282F2770A9F0842D90E0F3
S1130C400197880F991F880F991F880F991F820F8A
S1130C50911D092E000CAA0BBB0BF5018083918317
S1130C60A283B38311C0842D90E0880F991F880F4D
S1130C70991F880F991F092E000CAA0BBB0BF501B5
S1130C8080839183A283B383442071F0842D8131C6
S1130C9008F080E1482E512C612C712C4114510430
S1130CA06104710429F46BC0412C512C320143942A
S1130CB0082D132DC12CD12C760189E010DFF80109
S1130CC081938F01FFEFCF1ADF0AEF0AFF0AC414E2
S1130CD0D504E604F70488F352C06CE081E0F4DE46
S1130CE010E307E780CF84E0FADE682F6F7784E0B3
S1130CF0EBDE8AE0F4DE682F60688AE0E5DE60E01F
S1130D0081E0E2DE512C612C712C41145104610408
S1130D10710409F048CFE1CF6EE081E0D5DE10E147
S1130D2002E167CF84E0DBDE682F6F7784E0CCDEFE
S1130D308AE0D5DE682F60688AE0C6DE60E081E084
S1130D40C3DE512C612C712C4114510461047104D3
S1130D5009F02CCFE1CF8DE0C2DE682F6F778DE0F4
S1130D60B3DEC3E00CC08DE0BADE682F6F778DE090
S1130D70ABDE86E0B4DE8B7109F44FCFC3E08C2F79
S1130D80DF91CF911F910F91FF90EF90DF90CF9063
S1130D90BF90AF909F908F907F906F905F904F9097
S1130DA03F900895EF92FF920F931F93CF93DF9399
S1130DB000D01F92CDB7DEB7182F7B0167E08DE01E
S1130DC083DEF70110838E010F5F1F4F970141E00F
S1130DD0B7018CE0AEDE813059F449815A816B81D0
S1130DE07C81403151056105710519F083E001C032
S1130DF083E00F900F900F900F90DF91CF911F9190
S1130E000F91FF90EF900895EF92FF920F931F932D
S1130E10CF93DF9300D01F92CDB7DEB77C0160E0A3
S1130E208DE052DE83E9F701808380E281838E01C5
S1130E300F5F1F4F970142E0B7018CE07ADE8130EB
S1130E4071F4F701A7014C5F5F4F90E02191922765
S1130E50E417F507D9F7F7012481291383E00F90EC
S1130E600F900F900F90DF91CF911F910F91FF90F2
S1130E70EF90089584B1876084B923988CB5816517
S1130E808CBD08958EBD0DB407FEFDCF8EB50895BB
S1130E90119A81E08093840260E081D061E08DE06A
S1130EA0F4DC81E092E02FCD089511981092840231
S1130EB060E080E074C00895099A119852985A9A93
S1130EC0E9E6F0E0808180628083EA9AE29A78948D
S1130ED081E08093830261E08DE0D7DC8FE292E0D1
S1130EE012CD08951F920F920FB60F9211240BB6D4
S1130EF00F922F933F934F935F936F937F938F93AF
S1130F009F93AF93BF93EF93FF93809183028130BC
S1130F1011F4BEDF01C0C9DFFF91EF91BF91AF9122
S1130F209F918F917F916F915F914F913F912F91FD
S1130F300F900BBE0F900FBE0F901F9018956B9AD9
S1130F40739882E8809390008AE1809391001092D4
S1130F5092008CE88093970080EA80939600109228
S1130F6095001092940088EB9BE0909399008093F5
S1130F709800109271008FE288BB789408958111D3
S1130F8007C084EC99E090939900809398000895A9
S1130F908CEC90E1909399008093980008958130AF
S1130FA091F018F08230E9F02AC0662331F0EBE0CA
S1130FB0F1E08081816080830895EBE0F1E080813D
S1130FC08E7F80830895662331F0EBE0F1E0808129
S1130FD0826080830895EBE0F1E080818D7F8083DF
S1130FE00895662331F0EBE0F1E080818460808332
S1130FF00895EBE0F1E080818B7F80830895EBE03E
S1131000F1E08081887F80830895EAE0F1E08081C7
S113101087608083EBE0F1E08081887F808361E0FA
S113102080E0BDDF2FEF83ED90E3215080409040BE
S1131030E1F700C0000060E080E0B1DF61E081E042
S1131040AEDF2FEF83ED90E3215080409040E1F735
S113105000C0000060E081E0A2DF61E082E09FDF89
S11310602FEF83ED90E3215080409040E1F700C0E2
S1131070000060E082E093CF0895813059F018F0C9
S1131080823079F015C0EBE0F1E0908181E08927AE
S113109080830895EBE0F1E0908182E089278083EA
S11310A00895EBE0F1E0908184E08927808308953E
S11310B0EBE0F1E08081887F808308958F929F9296
S11310C0BF92CF92DF92EF92FF921F93CF93DF9361
S11310D000D01F921F92CDB7DEB77C014B01FE01F9
S11310E0319685E0DF011D928A95E9F7249A2C9ABE
S11310F0BFEFE3EDF0E3B150E040F040E1F700C0B2
S113110000002C982FEF80EE90E02150804090401A
S1131110E1F700C000002C9A2498A5EDAA95F1F7F8
S113112000001C995FC0EFE3F1E03197F1F700C0D4
S113113000001C9B59C08FE391E00197F1F700C0B8
S11311400000DE0111966E0196E0C90ED11C17E075
S1131150B12C60E0E1E0F0E079EC90E024C02150B3
S1131160310919F443C0272F392F1C9BF8CF20EAEB
S11311702A95F1F71C9B08C09F01042E02C0220F80
S1131180331F0A94E2F7822B272F392F03C02150F3
S1131190310971F11C99FBCF4150510920F78D930E
S11311A0AC15BD0521F0412F5B2D862FDCCF249A91
S11311B02C9A8FEF91EEA4E081509040A040E1F78B
S11311C000C0000029813B818A81820F830F9C81AA
S11311D0890F9D8189130EC0F7013083D4012C93AC
S11311E080E009C08FEF07C08FEF05C08FEF03C009
S11311F08FEF01C08FEF0F900F900F900F900F9013
S1131200DF91CF911F91FF90EF90DF90CF90BF902F
S11312109F908F90089552CF089582E08093C000EC
S113122088E98093C10087E08093C2001092C500D2
S11312308FEC8093C4000895E0ECF0E0908195FF7A
S1131240FDCF8093C60008950F931F93CF93DF9330
S1131250FC0101900020E9F73197E81BF90B71F0CC
S11312604AF0EC018C010E0F1F1F8991E5DFC017B6
S1131270D107D9F78DE0E0DF8AE0DEDFDF91CF919F
S11312801F910F9108951F920F920FB60F92112480
S11312900F900FBE0F901F901895109220018AE0B6
S11312A0809321018EE4809329018FE180932801AA
S11312B0109225011092240182E0809373007894A7
S11312C008951F920F920FB60F9211240BB60F922E
S11312D02F933F934F935F936F937F938F939F933A
S11312E0AF93BF93EF93FF93809161029091620259
S11312F001969093620280936102209160022F5FB5
S1131300209360028436910594F0809165028F5F8A
S11313108093650281E0809364028091840281114C
S113132002C081E0AADE10926202109261028091F2
S113133060028E3158F080918402813011F480E093
S11313409CDE81E08093630210926002FF91EF9132
S1131350BF91AF919F918F917F916F915F914F91C9
S11313603F912F910F900BBE0F900FBE0F901F90C7
S11313701895CF93DF9300D0CDB7DEB78091650287
S11313808A3048F1F89466E972E085E892E043DF38
S1131390789460E083E079DA809185024AE0BE01C6
S11313A06F5F7F4F082E000C990BD0D1CE010196B0
S11313B0AADA60E08BE069DA809196024AE0BE0125
S11313C06F5F7F4F082E000C990BC0D1CE010196A0
S11313D09ADA109265020F900F900F90DF91CF91DF
S11313E00895CF93C0916402C13009F03DC066E80E
S11313F072E082E5D7DC8130A1F586E892E004DD75
S113140080918602853E91F5EEE4F2E0A7E8B2E031
S113141025E532E091918D9198132AC0E217F307E4
S1131420C9F761E082E0BBDD80910002813059F4AC
S113143080E0A5DD1092000261E087E026DA84E016
S113144092E061DA0BC081E09ADD81E080930002D2
S113145061E087E01ADA88E092E055DA60E082E041
S11314609EDD1092640205C0C0E003C0C0E001C06C
S1131470C0E08C2FCF910895CF93DF9300D0CDB7E8
S1131480DEB780916302813009F027C18091660242
S1131490813009F020C1109266028091710290910E
S11314A07202A0917302B09174020097A105B10574
S11314B009F411C18D3A22E592072FEFA207B10575
S11314C009F4B8C078F58F3C20E392072FEFA20708
S11314D0B10509F48FC078F48F3E20E192072FEF15
S11314E0A207B10509F492C0873E9841AF4FB105F8
S11314F009F484C0A6C08D3B22E492072FEFA20713
S1131500B10509F48FC0853B2AE492072FEFA207A7
S1131510B10509F48BC0873C9843AF4FB10509F07E
S113152090C078C0873628E992072FEFA207B1054B
S113153009F484C0B8F4873928E692072FEFA2078C
S1131540B10509F454C085382AE792072FEFA207A2
S1131550B10509F457C0853A9A45AF4FB10509F072
S113156070C05CC08D3322EC92072FEFA207B10547
S113157031F18F3120EE92072FEFA207B10539F038
S11315808735984AAF4FB10509F05BC00DC0809113
S11315905F02811103C08BE080935F0280915F0240
S11315A0815080935F024DC080915F028F5F8B30CA
S11315B018F480935F0245C010925F0242C080918C
S11315C0830290918302816089278093830261E082
S11315D08DE05BD980918302811105C066DC8CE0CB
S11315E092E091D92EC08FE292E08DD92AC0109258
S11315F05F0227C081E080935F0223C082E0809372
S11316005F021FC083E080935F021BC084E080936D
S11316105F0217C085E080935F0213C086E0809369
S11316205F020FC087E080935F020BC088E0809365
S11316305F0207C089E080935F0203C08AE0809361
S11316405F0261E082E021D980E192E05CD961E04F
S113165082E01BD980915F024AE0BE016F5F7F4F39
S113166090E074D0CE0101964ED980915F0290E053
S11316708B30910580F5FC018827EE58FF4F8F4F82
S11316805DC01092A80027C08AE18093A80023C0FF
S113169083E38093A8001FC08DE48093A8001BC03F
S11316A086E68093A80017C080E88093A80013C042
S11316B089E98093A8000FC083EB8093A8000BC036
S11316C08CEC8093A80007C086EE8093A80003C02A
S11316D08FEF8093A800109263020F900F900F90E9
S11316E0DF91CF91089560E080E0CFD883E192E06C
S11316F00AD960E085E0C9D88FEDE7D861E080E0E1
S1131700C4D882E292E0FFC8089587DD8CE00AD94C
S113171080E0C6D8D7D8E7DF78DCBFDDABDBECD917
S11317200EDC81E02CDCC8DB0E94AC00B7D983E37B
S113173092E08ADD1EDE55DE9FDEFCCFEE0FFF1F3A
S1131740881F8BBF0790F691E02D1994BB274A3070
S113175031F4992322F4BDE2909581959F4F01C005
S1131760BB27FB015527AA27880F991FAA1FA41777
S113177010F0A41B83955051B9F7A05DAA3308F06B
S1131780A95DA193009779F7B111B1931192CB019F
S113179000C0DC01FC01672F71917723E1F73297D8
S11317A004C07C916D9370836291AE17BF07C8F338
S10917B00895F894FFCF38
S11317B6014F4E004F5045004C4F430044495300DF
S11317C620200020543A383820432020483A38381C
S11317D625004C3A302020443A4C4F4320413A45A8
S11317E64E2000696E697469616C697A6174696F07
S11317F66E2066696E6973682121210A00E5DC079B
S111180688B600000000000000000000000092
S9030000FC
