S0220000736D6172744D757365756D53686F77636173655F323536305F432E7372656354
S11300007CC000009BC0000099C000005EC70000D7
S113001097C2000093C0000091C000008FC0000090
S11300208DC000008BC0000089C0000087C00000A4
S113003085C0000083C0000081C000007FC00000B4
S11300407DC00000D8C0000079C0000077C0000067
S113005075C0000073C0000071C000006FC00000D4
S11300606DC000000C94410969C0000067C0000025
S113007065C0000063C0000061C000005FC00000F4
S11300805DC000005BC0000059C0000057C0000004
S113009055C0000053C0000051C000004FC0000014
S11300A04DC000004BC0000049C0000047C0000024
S11300B045C0000043C0000041C000000C946B091F
S11300C03DC000003BC0000039C0000037C0000044
S11300D035C0000033C0000031C000002FC0000054
S11300E02DC000005E0B610B650B690B6D0B710B72
S11300F0750B790B7D0B810B850B11241FBECFEF84
S1130100D1E2DEBFCDBF00E00CBF12E0A0E0B2E060
S1130110E6EDFDE100E00BBF02C007900D92AC3AA2
S1130120B107D9F722E0ACEAB2E001C01D92A43EC7
S1130130B207E1F70E94A40B0C94E90E61CF109270
S1130140B5021092B0021092C0021092C102109235
S1130150C2021092C3020895E1E8F0E08081886051
S11301608083808181608083EFE6F0E0808182601B
S113017080838FE990E090938900809388001092A7
S11301808500109284005398EB9AE9E6F0E08081B0
S1130190806880837894D3DF1092B6021092B702FD
S11301A01092B8021092B9020895982381E009F0E0
S11301B080E008958091B6029091B702A091B802B0
S11301C0B091B902883F9A42A105B10598F0B7DF12
S11301D01092B6021092B7021092B8021092B902AD
S11301E0E9E6F0E080818068808380818F7B808372
S11301F01092BF0208951F920F920FB60F9211240E
S11302008F939F93AF93BF938091C0029091C1024B
S1130210A091C202B091C3020196A11DB11D8093A9
S1130220C0029093C102A093C202B093C302809112
S1130230B6029091B702A091B802B091B9020196AA
S1130240A11DB11D8093B6029093B702A093B8028A
S1130250B093B902BF91AF919F918F910F900FBE50
S11302600F901F9018951092C0021092C102109224
S1130270C2021092C30281E08093B5020895809176
S1130280C0029091C102A091C202B091C302893A06
S11302909140A105B105D8F08091C0029091C102AE
S11302A0A091C202B091C3028C3D9140A105B10559
S11302B070F482E08093B5021092BE021092B102F3
S11302C01092B2021092B3021092B4020895809177
S11302D0C0029091C102A091C202B091C302883CB5
S11302E09105A105B10520F18091C0029091C10250
S11302F0A091C202B091C3028B3F9105A105B10543
S1130300B8F483E08093B50281E08093B0028091D9
S1130310BA029091BB02A091BC02B091BD0280933D
S1130320B1029093B202A093B302B093B4020895C1
S113033006CF08951092C0021092C1021092C20218
S11303401092C30281E08093B50208958091C002A7
S11303509091C102A091C202B091C3024F97A1052E
S1130360B10508F450C08091C0029091C102A091DF
S1130370C202B091C30282359105A105B10508F00E
S113038042C08091B1029091B202A091B302B091A7
S1130390B402880F991FAA1FBB1F8093B1029093C8
S11303A0B202A093B302B093B4028091BE028F5FF5
S11303B08093BE028091BE02803220F482E080935A
S11303C0B50208956091B1027091B2028091B302B6
S11303D09091B402EADE811102C0B1CE089583E0A7
S11303E08093B5028091B1029091B202A091B302C0
S11303F0B091B4028093BA029093BB02A093BC0262
S1130400B093BD0208958091C0029091C102A09161
S1130410C202B091C30280399105A105B10508F467
S113042054C08091C0029091C102A091C202B091C7
S1130430C302833C9105A105B10508F046C0809133
S1130440B1029091B202A091B302B091B402880FAC
S1130450991FAA1FBB1F81608093B1029093B202BF
S1130460A093B302B093B4028091BE028F5F8093D5
S1130470BE028091BE02803220F482E08093B502F5
S113048008956091B1027091B2028091B30290918B
S1130490B4028BDE811102C052CE089583E08093B2
S11304A0B5028091B1029091B202A091B302B091D1
S11304B0B4028093BA029093BB02A093BC02B0939F
S11304C0BD0281E08093AF0208951092BE021092A3
S11304D0B1021092B2021092B3021092B4022FCE63
S11304E008951092C0021092C1021092C20210929A
S11304F0C30282E08093B50208951092C002109264
S1130500C1021092C2021092C3021092B5028091ED
S1130510B1029091B202A091B302B091B40280935F
S1130520BA029093BB02A093BC02B093BD02109296
S1130530B6021092B7021092B8021092B90208954E
S11305401F920F920FB60F9211240BB60F922F9396
S11305503F934F935F936F937F938F939F93AF9347
S1130560BF93EF93FF9326DE8091B502813071F043
S113057028F08230B9F0833009F122C08091BF02A3
S1130580811102C070DE1DC0DADD1BC08091BF0284
S1130590813011F4CFDE15C08091BF02811111C0EA
S11305A06EDE0FC08091BF02813011F49ADF09C062
S11305B08091BF02811105C0C9DE03C09EDF01C066
S11305C0BEDD8091BF0281110CC0E9E6F0E08081BC
S11305D08068808380818064808381E08093BF020F
S11305E00EC08091BF02813051F4E9E6F0E08081D1
S11305F08068808380818F7B80831092BF02FF910B
S1130600EF91BF91AF919F918F917F916F915F9186
S11306104F913F912F910F900BBE0F900FBE0F90F3
S11306201F9018951092B90082E18093B800089544
S113063094EA9093BC00ECEBF0E090819923ECF702
S11306409091B900987F983011F09031A1F4809383
S1130650BB0084E88093BC00ECEBF0E0808188234D
S1130660ECF79091B900987F983139F081E090349B
S113067029F480E0089581E0089580E0089584E9F4
S11306808093BC00ECEBF0E0808184FDFDCF089505
S11306908093BB0084E88093BC00ECEBF0E08081A5
S11306A08823ECF79091B900987F81E0983209F49F
S11306B080E00895CF93882331F08091AC0281606B
S11306C08093AC0205C08091AC028E7F8093AC0213
S11306D08091AC0282608093AC026091AC0287E0AE
S11306E08DD162E087E0D4D100C064E087E06FD1AF
S11306F0C82F62E087E0CFD100C062E087E0C8D1B4
S113070000C064E087E063D1C295C07F8F70C82BBE
S113071062E087E0C0D18C2FCF91089580E0CADFDA
S11307208823E4F388E090E00197F1F780E0C2CFFA
S1130730089562E087E0ACD100C062E087E0ABC11D
S11307400895CF93C82F662331F08091AC02816065
S11307508093AC0205C08091AC028E7F8093AC0282
S11307608091AC028D7F8093AC026091AC0287E0F3
S113077045D18091AC028F778093AC028091AC021A
S11307808F7B8093AC028091AC028F7D8093AC020E
S11307908091AC028F7E8093AC02CC232CF48091A8
S11307A0AC0280688093AC02C6FF05C08091AC02A5
S11307B080648093AC02C5FF05C08091AC02806266
S11307C08093AC02C4FF05C08091AC028061809329
S11307D0AC026091AC0287E011D1ABDF8091AC0236
S11307E08F778093AC028091AC028F7B8093AC02B4
S11307F08091AC028F7D8093AC028091AC028F7E9D
S11308008093AC02C3FF05C08091AC0280688093E2
S1130810AC02C2FF05C08091AC0280648093AC023C
S1130820C1FF05C08091AC0280628093AC02C0FF1E
S113083005C08091AC0280618093AC026091AC02EF
S113084087E0DCD076DF8091AC0280618093AC02DB
S11308508091AC0280628093AC028091AC0280648F
S11308608093AC028091AC0280688093AC0260916A
S1130870AC0287E0C3D0CF910895CF93C82F4EDF49
S113088060E08C2F5EDFCF910895611103C0805822
S1130890F4CF08958054F1CF089581E0EECF089508
S11308A0882331F08091AC02877F8093AC0205C02D
S11308B08091AC0288608093AC026091AC0287E0C6
S11308C09DC0089582E0D9CF0895CF93C82F26DF25
S11308D0CA3041F4803410F080E001C080E48058D4
S11308E0CCDF0FC0803121F460E080EC2ADF05C04A
S11308F0803519F460E080E824DF10DF61E08C2F9C
S113090020DFCF910895CF93DF93EC012196FC0172
S11309108081882321F0D9DF89918111FCCFDF9177
S1130920CF9108951F93CF93DF93182F40D0109247
S1130930AC026091AC0287E061D080E09AEF01974D
S1130940F1F79091AC0290629093AC029091AC025A
S113095090619093AC026091AC0287E04FD0E9DEE5
S1130960E0E0FEE43197F1F7E4DEC0E0D1E0FE011F
S11309703197F1F7DEDEFE013197F1F79091AC0289
S11309809F7E9093AC026091AC0287E037D0D1DEB9
S11309902197F1F788E271DF88E06FDF7EDF86E080
S11309A06CDF812F6ADFDF91CF911F9108953ADECA
S11309B085E38A95F1F7000080E090E0FC01EC53B8
S11309C0FD4F1082019688309105C1F70895883053
S11309D088F4683088F4E82FF0E0EC53FD4F808110
S11309E0082E000C990B02C0959587956A95E2F73D
S11309F0817008958FEF08958FEF0895CF93883015
S1130A0080F4C62F982FE82FF0E0EC53FD4F60835D
S1130A1080E2890F880F0CDE8C2F3ADE30DE80E016
S1130A2001C08FEFCF910895CF93DF93883050F5B5
S1130A30683050F5282F30E0F901EC53FD4F9081D8
S1130A40442349F0C1E0D0E002C0CC0FDD1F6A9519
S1130A50E2F7C92B09C0C1E0D0E002C0CC0FDD1F12
S1130A606A95E2F7C095C923982FF901EC53FD4F1D
S1130A70C08380E2890F880FDBDD8C2F09DEFFDD68
S1130A8080E003C08FEF01C08FEFDF91CF91089515
S1130A9041E0CACF089540E0C7CF0895E1E0F1E016
S1130AA080818860808381E88093A0008AE08093BD
S1130AB0A1001092A2001092A5001092A40010921E
S1130AC0A9001092A8000895CF93C62F2898880FE4
S1130AD08E77D8D18C2FD6D1289ACF910895289883
S1130AE0880F8E778068CED180E0CCD1289A089583
S1130AF06FE081E0E9CF0895FBDF6DE88AE2E4DF8F
S1130B006EE38BE2E1DF6EE18CE2DEDF60E08DE23A
S1130B10DBDF60E485E1D8DF6DE381E1D5DF84E1EB
S1130B20DEDF982F937021F4682F636084E1CCCFCB
S1130B3008953F924F925F926F927F928F929F920D
S1130B40AF92BF92CF92DF92EF92FF920F931F93D7
S1130B50CF93DF93982EF62EE72E442E822E332E3B
S1130B6058018CE0981609F4BEC0EEE09E1609F414
S1130B70D9C084E0B4DF682F6F7784E0A5DF8AE012
S1130B80AEDF682F60688AE09FDF60E081E09CDF71
S1130B90512C612C712C4114510461047104D9F05D
S1130BA010E000E005C010E307E702C010E102E135
S1130BB0CF2DDE2DC12CD12C7601699189E084DF03
S1130BC0FFEFCF1ADF0AEF0AFF0AC414D504E604C4
S1130BD0F70498F302C010E000E0692D81E074DFAF
S1130BE08CE0981206C08DE07ADF682F60688DE093
S1130BF06BDF84E074DFF82EC0E0D0E0116009C040
S1130C0084E06DDFF82E2196CF3CE7E0DE0709F49F
S1130C10A2C08F2D8123A1F3A6C00170F02211F090
S1130C20C2E001C0C1E0FCE09F12A9C08AE057DF26
S1130C30482E8CE054DF282F2770A9F0842D90E0F3
S1130C400197880F991F880F991F880F991F820F8A
S1130C50911D092E000CAA0BBB0BF5018083918317
S1130C60A283B38311C0842D90E0880F991F880F4D
S1130C70991F880F991F092E000CAA0BBB0BF501B5
S1130C8080839183A283B383442071F0842D8131C6
S1130C9008F080E1482E512C612C712C4114510430
S1130CA06104710429F46BC0412C512C320143942A
S1130CB0082D132DC12CD12C760189E010DFF80109
S1130CC081938F01FFEFCF1ADF0AEF0AFF0AC414E2
S1130CD0D504E604F70488F352C06CE081E0F4DE46
S1130CE010E307E780CF84E0FADE682F6F7784E0B3
S1130CF0EBDE8AE0F4DE682F60688AE0E5DE60E01F
S1130D0081E0E2DE512C612C712C41145104610408
S1130D10710409F048CFE1CF6EE081E0D5DE10E147
S1130D2002E167CF84E0DBDE682F6F7784E0CCDEFE
S1130D308AE0D5DE682F60688AE0C6DE60E081E084
S1130D40C3DE512C612C712C4114510461047104D3
S1130D5009F02CCFE1CF8DE0C2DE682F6F778DE0F4
S1130D60B3DEC3E00CC08DE0BADE682F6F778DE090
S1130D70ABDE86E0B4DE8B7109F44FCFC3E08C2F79
S1130D80DF91CF911F910F91FF90EF90DF90CF9063
S1130D90BF90AF909F908F907F906F905F904F9097
S1130DA03F900895EF92FF920F931F93CF93DF9399
S1130DB000D01F92CDB7DEB7182F7B0167E08DE01E
S1130DC083DEF70110838E010F5F1F4F970141E00F
S1130DD0B7018CE0AEDE813059F449815A816B81D0
S1130DE07C81403151056105710519F083E001C032
S1130DF083E00F900F900F900F90DF91CF911F9190
S1130E000F91FF90EF900895EF92FF920F931F932D
S1130E10CF93DF9300D01F92CDB7DEB77C0160E0A3
S1130E208DE052DE83E9F701808380E281838E01C5
S1130E300F5F1F4F970142E0B7018CE07ADE8130EB
S1130E4071F4F701A7014C5F5F4F90E02191922765
S1130E50E417F507D9F7F7012481291383E00F90EC
S1130E600F900F900F90DF91CF911F910F91FF90F2
S1130E70EF90089584B1876084B923988CB5816517
S1130E808CBD08958EBD0DB407FEFDCF8EB50895BB
S1130E90119A61E08DE0F9DC8FE092E034CD0895A1
S1130EA0119861E08DE0F1DC8EE792E02CCD08959D
S1130EB0099AF6DF52985A9AE9E6F0E08081806256
S1130EC08083EA9AE29A789408951F920F920FB65B
S1130ED00F9211240BB60F922F933F934F935F936E
S1130EE06F937F938F939F93AF93BF93EF93FF93EE
S1130EF08091AD02811108C081E08093AD0261E070
S1130F0080E04BD0C5DF06C01092AD0260E080E007
S1130F1044D0C6DFFF91EF91BF91AF919F918F9124
S1130F207F916F915F914F913F912F910F900BBEE5
S1130F300F900FBE0F901F9018956B9A739882E8CC
S1130F40809390008AE180939100109292008CE843
S1130F508093970080EA80939600109295001092F7
S1130F60940088EB9BE090939900809398001092F2
S1130F7071008FE288BB78940895811107C084ECD6
S1130F8099E0909399008093980008958CEC90E1F7
S1130F9090939900809398000895813091F018F00F
S1130FA08230E9F02AC0662331F0EBE0F1E0808181
S1130FB0816080830895EBE0F1E080818E7F8083FF
S1130FC00895662331F0EBE0F1E080818260808354
S1130FD00895EBE0F1E080818D7F8083089566239E
S1130FE031F0EBE0F1E08081846080830895EBE0F0
S1130FF0F1E080818B7F80830895EBE0F1E08081D4
S1131000887F80830895EAE0F1E0808187608083AF
S1131010EBE0F1E08081887F808361E080E0BDDFE8
S11310202FEF83ED90E3215080409040E1F700C022
S1131030000060E080E0B1DF61E081E0AEDF2FEF2F
S113104083ED90E3215080409040E1F700C0000020
S113105060E081E0A2DF61E082E09FDF2FEF83EDBB
S113106090E3215080409040E1F700C0000060E030
S113107082E093CF0895813059F018F0823079F0EE
S113108015C0EBE0F1E0908181E089278083089529
S1131090EBE0F1E0908182E0892780830895EBE022
S11310A0F1E0908184E0892780830895EBE0F1E00A
S11310B08081887F808308958F929F92BF92CF9280
S11310C0DF92EF92FF921F93CF93DF9300D01F9292
S11310D01F92CDB7DEB77C014B01FE01319685E04E
S11310E0DF011D928A95E9F7249A2C9ABFEFE1EE6D
S11310F0F4E0B150E040F040E1F700C000002C986B
S11311002FEF80EE90E0215080409040E1F700C046
S113111000002C9A2498A5EDAA95F1F700001C99DB
S11311205FC0EFE3F1E03197F1F700C000001C9BD2
S113113059C08FE391E00197F1F700C00000DE0190
S113114011966E0196E0C90ED11C17E0B12C60E037
S1131150E1E0F0E079EC90E024C02150310919F489
S113116043C0272F392F1C9BF8CF20EA2A95F1F78B
S11311701C9B08C09F01042E02C0220F331F0A9437
S1131180E2F7822B272F392F03C02150310971F147
S11311901C99FBCF4150510920F78D93AC15BD0527
S11311A021F0412F5B2D862FDCCF249A2C9A8FEFD0
S11311B091EEA4E081509040A040E1F700C000000F
S11311C029813B818A81820F830F9C81890F9D81B4
S11311D089130EC0F7013083D4012C9380E009C039
S11311E08FEF07C08FEF05C08FEF03C08FEF01C0F3
S11311F08FEF0F900F900F900F900F90DF91CF9182
S11312001F91FF90EF90DF90CF90BF909F908F90B1
S1131210089552CF089582E08093C00088E98093B6
S1131220C10087E08093C2001092C5008FEC8093C8
S1131230C4000895E0ECF0E0908195FFFDCF809329
S1131240C60008950F931F93CF93DF93FC01019081
S11312500020E9F73197E81BF90B71F04AF0EC0133
S11312608C010E0F1F1F8991E5DFC017D107D9F735
S11312708DE0E0DF8AE0DEDFDF91CF911F910F91F7
S113128008951F920F920FB60F9211240F900FBE64
S11312900F901F901895CF93C82F8A3011F48DE0CA
S11312A0C9DF8C2FC7DF80E090E0CF9108951092C2
S11312B020018AE0809321018EE4809329018FE14B
S11312C080932801109225011092240182E08093DA
S11312D07300789408951F920F920FB60F92112401
S11312E00BB60F922F933F934F935F936F937F931C
S11312F08F939F93AF93BF93EF93FF938091E202F9
S11313009091E30201969093E3028093E20280912C
S1131310CC028F5F8093CC028091E2029091E30231
S11313208436910584F081E08093CD028093E102BC
S11313306FED72E08EEC92E06CDF81E09CDE109247
S1131340E3021092E2028091CC028E3128F081E017
S11313508093E0021092CC02FF91EF91BF91AF9184
S11313609F918F917F916F915F914F913F912F91B9
S11313700F900BBE0F900FBE0F901F901895CF9338
S1131380DF9300D0CDB7DEB7813001F560E083E0B4
S11313907CDA8091CE024AE0BE016F5F7F4F082E57
S11313A0000C990BF8D1CE010196ADDA60E08BE028
S11313B06CDA8091DF024AE0BE016F5F7F4F082E36
S11313C0000C990BE8D1CE0101969DDA0F900F9095
S11313D00F90DF91CF910895813009F059C06FECDF
S11313E072E082E5DFDC813009F054C08FEC92E0DA
S11313F00BDD8091CF02853E09F04EC0EDE9F2E0AD
S1131400A0EDB2E024EA32E091918D91981346C0A8
S1131410E217F307C9F761E082E0BFDD80910002C3
S11314208130A1F480E0A9DD1092000261E087E040
S11314302CDA83E192E067DA21E032E048E150E01F
S113144061E070E087E192E0D8D114C081E095DDDD
S113145081E08093000261E087E017DA80E392E0A4
S113146052DA21E032E046E150E061E070E084E3EA
S113147092E0C3D12FEF83ED90E321508040904060
S1131480E1F700C0000060E082E087DD81E00895BC
S113149080E0089581E0089580E0089580E0089553
S11314A0CF92DF92EF92FF92CF93DF9300D0CDB72C
S11314B0DEB7813009F02CC18091AF02813009F090
S11314C027C11092AF02C090BA02D090BB02E09044
S11314D0BC02F090BD02C114D104E104F10409F48A
S11314E017C1FF92EF92DF92CF928BE492E09F9329
S11314F08F9381E092E09F938F9370D10FB6F8940D
S1131500DEBF0FBECDBF9DEAC91692E5D9069FEF97
S1131510E906F10409F4ABC0C8F59FECC91690E3E1
S1131520D9069FEFE906F10409F481C098F49FEE0F
S1131530C91690E1D9069FEFE906F10409F483C0C6
S113154087EEC81688E1D8068FEFE806F10409F49F
S113155072C094C09DEBC91692E4D9069FEFE906C8
S1131560F10409F47CC085EBC8168AE4D8068FEF31
S1131570E806F10409F477C097ECC91698E3D90694
S11315809FEFE906F10409F079C061C085E8C81647
S11315908AE7D8068FEFE806F10409F450C090F406
S11315A085EAC8168AE5D8068FEFE806F10409F43F
S11315B052C097E9C91698E6D9069FEFE906F104E7
S11315C099F15CC087E5C81688EAD8068FEFE8066B
S11315D0F104F9F09FE1C91690EED9069FEFE906F0
S11315E0F10451F087E6C81688E9D8068FEFE806BB
S11315F0F10409F043C03FC08091AE02811103C0E1
S11316008BE08093AE028091AE0281508093AE0253
S113161035C08091AE028F5F8B3018F48093AE0298
S11316202DC01092AE022AC01092AE0227C081E0F3
S11316308093AE0223C082E08093AE021FC083E099
S11316408093AE021BC084E08093AE0217C085E095
S11316508093AE0213C086E08093AE020FC087E091
S11316608093AE020BC088E08093AE0207C089E08D
S11316708093AE0203C08AE08093AE0261E082E010
S113168004D98FE592E03FD961E082E0FED88091F1
S1131690AE024AE0BE016F5F7F4F90E07CD0CE0186
S11316A0019631D98091AE0290E08B30910580F59E
S11316B0FC018827EE58FF4F8F4F65C01092A80099
S11316C027C08AE18093A80023C083E38093A80005
S11316D01FC08DE48093A8001BC086E68093A800F9
S11316E017C080E88093A80013C089E98093A800FC
S11316F00FC083EB8093A8000BC08CEC8093A800F0
S113170007C086EE8093A80003C08FEF8093A800E3
S11317100F900F900F90DF91CF91FF90EF90DF909B
S1131720CF90089560E080E0B0D882E692E0EBD8F4
S113173060E085E0AAD88FEDC8D861E080E0A5D844
S113174081E792E0E0C8089566DD8CE0EBD880E0A4
S1131750A7D8B8D8E7DF57DCAADD8CDBCDD9EDDB21
S113176081E00BDCA5DB0E94AC0098D982E892E012
S113177069DD8091CD0203DE8091E1022DDE80914E
S1131780E0028EDEF6CFEE0FFF1F881F8BBF07909F
S1131790F691E02D1994BB274A3031F4992322F4B1
S11317A0BDE2909581959F4F01C0BB27FB01552752
S11317B0AA27880F991FAA1FA41710F0A41B8395AA
S11317C05051B9F7A05DAA3308F0A95DA193009721
S11317D079F7B111B1931192CB0155C2CF93DF9335
S11317E0CDB7DEB7AE01465F5F4F688579858E81E0
S11317F09F8145D0DF91CF9108958F929F92AF92B0
S1131800BF92CF92DF92EF92FF920F931F93CF93E9
S1131810DF935B014A017901D90113962C9121FFD1
S11318201DC0C0E0D0E0C815D905D9F08C016C0109
S1131830CA0CDB1CC8010C151D0571F00F5F1F4F8E
S1131840D7011896ED91FC911997B701DC018C91A1
S11318501995892B79F305C02196E5CF80E090E0B6
S113186001C0CE01DF91CF911F910F91FF90EF90B6
S1131870DF90CF90BF90AF909F908F9008952F925C
S11318803F924F925F926F927F928F929F92AF920C
S1131890BF92CF92DF92EF92FF920F931F93CF9359
S11318A0DF93CDB7DEB72C970FB6F894DEBF0FBE2B
S11318B0CDBF7C016B018A01FC01178216828381F2
S11318C081FFB0C1CE0101964C01F7019381F6016D
S11318D093FD859193FF81916F01882309F49EC143
S11318E0853239F493FD859193FF81916F0185329F
S11318F021F4B70190E0D7D1E8CF512C312C20E06E
S11319002032A0F48B3269F030F4803259F0833203
S113191069F420612CC08D3239F0803339F42160B0
S113192026C02260246023C0286021C027FD27C070
S113193030ED380F3A3078F426FF06C0FAE05F9EA7
S1131940300D1124532E13C08AE0389E300D11241B
S1131950332E20620CC08E3221F426FD5FC1206438
S113196006C08C3611F4206802C0883641F4F601B2
S113197093FD859193FF81916F018111C1CF982FC0
S11319809F7D9554933028F40C5F1F4FFFE3F98338
S11319900DC0833631F0833771F0833509F057C0B9
S11319A021C0F801808189830E5F1F4F4424439432
S11319B0512C540114C03801F2E06F0E711CF8016F
S11319C0A080B18026FF03C0652D70E002C06FEFD8
S11319D07FEFC5012C874CD12C0183012C852F77F7
S11319E0222E16C03801F2E06F0E711CF801A0809F
S11319F0B18026FF03C0652D70E002C06FEF7FEF5A
S1131A00C5012C872AD12C012C852068222E830124
S1131A1023FC19C0832D90E048165906A0F4B701A1
S1131A2080E290E040D13A94F5CFF50127FC85910E
S1131A3027FE81915F01B70190E035D131103A94CE
S1131A40F1E04F1A51084114510479F7DEC084368D
S1131A5011F0893631F5F80127FF07C060817181E3
S1131A60828193810C5F1F4F08C060817181072EB2
S1131A70000C880B990B0E5F1F4F2F76722E97FF69
S1131A8009C090958095709561957F4F8F4F9F4FBA
S1131A902068722E2AE030E0A4013DD1A82EA818B7
S1131AA043C0853729F42F7EB22E2AE030E025C0CA
S1131AB0F22FF97FBF2E8F36C1F018F4883579F0F4
S1131AC0ADC0803719F0883721F0A8C02F2F2061CE
S1131AD0B22EB4FE0DC08B2D8460B82E09C024FF35
S1131AE00AC09F2F9660B92E06C028E030E005C0DA
S1131AF020E130E002C020E132E0F801B7FE07C087
S1131B0060817181828193810C5F1F4F06C0608167
S1131B10718180E090E00E5F1F4FA401FCD0A82EDD
S1131B20A818FB2DFF777F2E76FE0BC0372D3E7F46
S1131B30A51450F474FE0AC072FC08C0372D3E7E12
S1131B4005C0BA2C372D03C0BA2C01C0B52C34FF04
S1131B500DC0FE01EA0DF11D8081803311F4397E40
S1131B6009C032FF06C0B394B39404C0832F8678AF
S1131B7009F0B39433FD12C030FF06C05A2CB314DD
S1131B8018F4530C5B18B32CB31460F4B70180E25F
S1131B9090E03C8788D0B3943C85F6CFB31410F41E
S1131BA03B1801C0312C34FF11C0B70180E390E031
S1131BB03C8779D03C8532FF16C031FD03C088E7ED
S1131BC090E002C088E590E0B7010CC0832F8678CE
S1131BD051F031FF02C08BE201C080E237FD8DE29B
S1131BE0B70190E060D0A51430F4B70180E390E031
S1131BF05AD05A94F8CFAA94F401EA0DF11D8081C9
S1131C00B70190E050D0A110F6CF332009F45DCE97
S1131C10B70180E290E047D03A94F7CFF70186818C
S1131C20978102C08FEF9FEF2C960FB6F894DEBF1A
S1131C300FBECDBFDF91CF911F910F91FF90EF9019
S1131C40DF90CF90BF90AF909F908F907F906F90D8
S1131C505F904F903F902F900895FC010590615044
S1131C6070400110D8F7809590958E0F9F1F0895AE
S1131C70FC016150704001900110D8F78095909557
S1131C808E0F9F1F0895DC01FC01672F719177234C
S1131C90E1F7329704C07C916D9370836291AE1723
S1131CA0BF07C8F308950F931F93CF93DF93FB01EE
S1131CB0238121FD03C08FEF9FEF28C022FF16C0B0
S1131CC046815781248135814217530744F4A0810A
S1131CD0B1819D012F5F3F4F318320838C932681F7
S1131CE037812F5F3F4F3783268310C0EB01092FC5
S1131CF0182F0084F185E02D1995892BE1F68E814A
S1131D009F8101969F838E83812F902FDF91CF91A6
S1131D101F910F910895FA01AA27283051F120311B
S1131D2081F1E8946F936E7F6E5F7F4F8F4F9F4F6B
S1131D30AF4FB1E03ED0B4E03CD0670F781F891FAD
S1131D409A1FA11D680F791F8A1F911DA11D6A0F7B
S1131D50711D811D911DA11D20D009F468943F912E
S1131D602AE0269F11243019305D3193DEF6CF012D
S1131D700895462F4770405D4193B3E00FD0C9F7F3
S1131D80F6CF462F4F70405D4A3318F0495D31FD60
S1131D904052419302D0A9F7EACFB4E0A6959795B3
S1131DA0879577956795BA95C9F700976105710589
S1131DB008959B01AC010A2E0694579547953795D3
S1131DC02795BA95C9F7620F731F841F951FA01D2D
S1091DD00895F894FFCF12
S1131DD60100000002000000004B09000000004F53
S1131DE64E20004F50450073686F7720636173651A
S1131DF620646F6F7220756E6C6F636B656421006F
S1131E064C4F430073686F77206361736520646F7A
S1131E166F72206C6F636B65642100637572726503
S1131E266E745F636F6D6D616E643A25780A002087
S1131E36200020543A383820432020483A383825A0
S1131E46004C3A302020443A4C4F4320413A4F4606
S1131E564600696E697469616C697A6174696F6E4A
S1131E662066696E6973682121210A00E5DC07880A
S10F1E76B60000000000000000000000A6
S9030000FC
