S029000054696D657244656D6F335F536F667477617265446976696465725F323536305F432E7372656303
S113000071C0000081C000007FC000007DC00000FE
S11300107BC0000079C0000077C0000075C00000FC
S113002073C0000071C000006FC000006DC000000C
S11300306BC0000069C0000067C0000065C000001C
S113004063C00000A1C000005FC000005DC00000EC
S11300505BC0000059C0000057C0000055C000003C
S113006053C0000051C000004FC000004DC000004C
S11300704BC0000049C0000047C0000045C000005C
S113008043C0000041C000003FC000003DC000006C
S11300903BC0000039C0000037C0000035C000007C
S11300A033C0000031C000002FC000002DC000008C
S11300B02BC0000029C0000027C0000025C000009C
S11300C023C0000021C000001FC000001DC00000AC
S11300D01BC0000019C0000017C0000015C00000BC
S11300E013C0000011241FBECFEFD1E2DEBFCDBF8D
S11300F000E00CBF22E0A0E0B2E001C01D92A430F9
S1130100B207E1F71CD083C07BCF8FEF84B985B9E8
S113011078940895109280008DE08093810010926D
S1130120820083E08093890080ED809388001092A0
S113013085001092840082E080936F000895E5DFCB
S11301401092020285E0809303021092010283E080
S113015080930002DFDFFFCF83B180FF02C08E7F78
S113016001C0816085B9089583B183FF02C0877798
S113017001C0886085B9089583B1882314F48F770A
S113018001C0806885B908951F920F920FB60F922F
S113019011240BB60F922F933F934F935F936F935A
S11301A07F938F939F93AF93BF93EF93FF93D4DF8A
S11301B0809102028F5F809302029091030289135F
S11301C003C010920202D8DF809101028F5F8093F6
S11301D0010290910002891303C010920102C4DF4E
S11301E01092850010928400FF91EF91BF91AF911E
S11301F09F918F917F916F915F914F913F912F913B
S11302000F900BBE0F900FBE0F901F901895F8948F
S1050210FFCF1A
S9030000FC
