S02B000054696D657244656D6F315F53696E676C6554696D657253696E676C654C45445F5042375F466C617317
S11300000C9472000C9486000C9486000C94860068
S11300100C9486000C9486000C9486000C94860044
S11300200C9486000C9486000C9486000C94860034
S11300300C9486000C9486000C9486000C94860024
S11300400C9486000C94A9000C9486000C948600F1
S11300500C9486000C9486000C9486000C94860004
S11300600C9486000C9486000C9486000C948600F4
S11300700C9486000C9486000C9486000C948600E4
S11300800C9486000C9486000C9486000C948600D4
S11300900C9486000C9486000C9486000C948600C4
S11300A00C9486000C9486000C9486000C948600B4
S11300B00C9486000C9486000C9486000C948600A4
S11300C00C9486000C9486000C9486000C94860094
S11300D00C9486000C9486000C9486000C94860084
S11300E00C94860011241FBECFEFD1E2DEBFCDBF3A
S11300F000E00CBF22E0A0E0B2E001C01D92A130FC
S1130100B207E1F70E94A2000C94C2000C94000014
S11301108FEF84B915B80895109280008DE0809314
S113012081001092820083E08093890080ED8093A7
S11301308800109285001092840082E080936F0002
S1130140789408950E948800109200020E948C0006
S1130150FFCF1F920F920FB60F9211248F938091AD
S11301600002811106C081E08093000280E885B915
S113017003C01092000215B88F910F900FBE0F901C
S10B01801F901895F894FFCFBD
S9030000FC
